:020000040800F2
:1000000078560020913700085D0200085F02000862
:1000100063020008670200086B020008000000008D
:100020000000000000000000000000006F02000857
:100030007102000800000000730200087502000849
:10004000AB370008AB370008AB370008AB37000808
:10005000AB370008AB370008AB370008AB370008F8
:10006000CD3100085D32000817320008AB370008B8
:10007000AB370008AB370008AB370008AB370008D8
:10008000AB370008AB370008AB370008AB370008C8
:10009000AB370008AB370008AB370008AB370008B8
:1000A000AB370008AB370008AB370008AB370008A8
:1000B000AB370008B1050008C1070008AB370008DE
:1000C000AB370008AB370008AB370008AB37000888
:1000D000AB37000827370008AB370008AB370008FC
:1000E000AB370008AB370008AB370008AB37000868
:1000F000AB370008AB370008AB370008AB37000858
:10010000AB370008AB370008AB370008AB37000847
:10011000AB370008AB370008AB370008AB37000837
:10012000AB370008AB370008AB370008AB37000827
:1001300000F002F800F03AF80AA090E8000C8244BF
:100140008344AAF10107DA4501D100F02FF8AFF29C
:10015000090EBAE80F0013F0010F18BFFB1A43F0A5
:1001600001031847AC5A0000CC5A0000103A24BFD3
:1001700078C878C1FAD8520724BF30C830C144BF0C
:1001800004680C607047000000230024002500264E
:10019000103A28BF78C1FBD8520728BF30C148BFEA
:1001A0000B6070471FB51FBD10B510BD05F0A1F85D
:1001B0001146FFF7F7FF00F009F805F0BFF803B4A8
:1001C000FFF7F2FF03BC05F0C7F8000003F070F87A
:1001D00003F0D8F800F040F900F00EFD03F0E7F866
:1001E00002F09DF902F0C4FF6421084600F06AF9AC
:1001F00041F61F4142F2107000F090F922E01248DF
:100200000078012815D111480078232808D1002151
:100210000F4804F089FBFA200E49088002F00DFA1D
:1002200000F08CFB01210A4804F07EFB0020064907
:10023000087009480078012804D100F058FC00201B
:1002400005490870DBE700004B0000204C0000204F
:10025000000400402000002014000020704700BF70
:10026000FEE700BFFEE700BFFEE700BFFEE7704706
:1002700070477047704700000CB500200190009057
:100280006C48006840F480306A49086000BF6948E3
:10029000006800F4003000900198401C0190009824
:1002A00018B90198B0F5A06FF1D16248006800F468
:1002B000003010B10120009001E000200090009873
:1002C000012843D15C48006840F010005A4908609A
:1002D0000846006820F0030008600846006840F007
:1002E0000200086053484068524948600846406828
:1002F00048600846406840F48060486008464068AE
:1003000020F47C1048600846406840F4E8104860DB
:100310000846006840F08070086000BF45480068EB
:1003200000F000700028F9D04248406820F0030037
:10033000404948600846406840F00200486000BFFD
:100340003C48406800F00C000828F9D10CBD10B5FD
:10035000FFF792FF10BD10B53648006840F001006D
:1003600034490860084640683449084031494860CB
:1003700008460068324908402E490860084600686F
:1003800020F4802008600846406820F4FE004860A1
:100390004FF41F008860FFF7DAFF4FF00060294933
:1003A000086010BD10B5002100200022214B5B68C1
:1003B00003F00C0121B1042906D0082928D107E057
:1003C000214B224C236027E01F4B204C236023E06D
:1003D000184B5B6803F47010164B5B6803F48032B3
:1003E000022303EB904022B9194B4343174C23607F
:1003F0000DE0104B5B6803F4003323B1144B43430F
:10040000124C236003E0104B4343104C236003E085
:100410000D4B0E4C236000BF00BF064B5B68C3F35F
:1004200003130C4CE15C094B1B68CB40074C236069
:1004300010BD000000100240002002400000FFF844
:10044000FFFFF6FE08ED00E000127A000000002039
:1004500000093D000400002008B50121482003F0F8
:10046000CFFD2020ADF8000010208DF80300032000
:100470008DF802006946084803F006FB2021064873
:1004800003F0AFFB6946054803F0FEFA202103485C
:1004900003F0A7FB08BD0000000C0140001801405C
:1004A00008B50121402003F0ABFD1C20ADF8000091
:1004B00048208DF803006946014803F0E5FA08BDBD
:1004C000001801407FB505460C460121022003F0CB
:1004D000A4FDADF80850ADF804400020ADF80A00C6
:1004E000ADF8060001A9FB4803F0C2FE0122114647
:1004F000F84804F034FA1D208DF8000000208DF833
:1005000001008DF8020001208DF80300684603F019
:1005100064F90021EF4804F007FA7FBD7FB5054676
:100520000C460121042003F078FDADF80850ADF829
:1005300004400020ADF80A00ADF8060001A9E64825
:1005400003F096FE01221146E34804F008FA1E204B
:100550008DF8000000208DF8010002208DF80200C7
:1005600001208DF80300684603F037F90021DA48CE
:1005700004F0DAF97FBD3EB50446601E84B2ADF8E2
:1005800004404720ADF800006946D24803F070FEF1
:100590003EBD3EB50446601E84B2ADF804404DF643
:1005A0006F70ADF800006946CB4803F061FE3EBDB8
:1005B00010B50121C74804F080FC00286FD001204D
:1005C000C6490870C6480078112869D2DFE800F0F3
:1005D000EC0914232F3F4B5B69798595A1B1BDCD03
:1005E000D9000120BF490860BF490888FFF7C3FF51
:1005F0000120BA490870D8E00020BA490860BA4919
:10060000098840F6C412511A88B2FFF7B4FF0120DE
:10061000B2490870C9E00120B249091D0860B24919
:100620004888FFF7A8FF0120AC490870BDE0002012
:10063000AC49091D0860AC49498840F6C412511AFA
:1006400088B2FFF798FF0120A4490870ADE00120AF
:10065000A44908310860A4498888FFF78CFF01206D
:100660009E490870A1E000209E49083108609E491B
:10067000898840F6C412511A88B2FFF77CFF012026
:100680009649087091E0012096490C31086096491E
:10069000C888FFF770FF01209049087085E08EE060
:1006A00082E000208F490C3108608F49C98840F6EC
:1006B000C412511A88B2FFF75EFF01208749087003
:1006C00073E0012087491031086087490889FFF7E6
:1006D00052FF01208149087067E0002081491031F4
:1006E00008608149098940F6C412511A88B2FFF79F
:1006F00042FF01207949087057E0012079491431FF
:10070000086079494889FFF736FF0120734908706E
:100710004BE000207349143108607349498940F661
:10072000C412511A88B2FFF726FF01206B490870E6
:100730003BE001206B49183108606B498889FFF75D
:100740001AFF0120654908702FE000206549183123
:1007500008606549898940F6C412511A88B2FFF7CA
:100760000AFF01205D4908701FE001205D491C312E
:1007700008605D49C889FFF7FEFE012057490870EF
:1007800013E0002057491C3108605749C98940F6D9
:10079000C412511A88B2FFF7EEFE01204F490870CB
:1007A00000204F49087000E000BF00BF4C480078AF
:1007B000401C4B4908700121464804F08FFB10BDD6
:1007C00010B54A48006808B9012000E000204749F8
:1007D00008604748D0F8940108B9012000E00020E3
:1007E0004449086001213C4804F067FB00286FD0B1
:1007F00041480078442849D006DC412818D04228D6
:1008000025D0432865D132E045284FD05A2860D101
:100810000021314804F088F8412037490870002150
:10082000364801F036FF4FF4FA703549088074E01D
:100830000021294804F078F842202F49087003214C
:10084000304801F026FFFA202D49088065E000219C
:10085000214804F069F843202749087000212A48FC
:1008600001F017FF4FF4FA702549088055E0002188
:10087000194804F059F844201F49087003212348FF
:1008800001F007FFFA201E49088046E000211248C7
:1008900004F04AF845201849087000211C4801F06E
:1008A000F8FE4FF4FA701649088036E000210A4835
:1008B00004F03AF8512010490870372002F021FF67
:1008C0000321144801F0E5FEFA200D49088024E0D8
:1008D0002EE021E000040040000800401400002049
:1008E00015000020800121423000002094012342A5
:1008F0000080214294812142450000206820002090
:100900002000002078200020B8200020C8200020EF
:10091000082100201821002000BF00BF00F00EF8C1
:100920000121044804F000F80121034804F0D6FA3C
:1009300010BD0000000400400008004070B5BA4837
:100940000088BA4908800020B9490880B948007871
:10095000B949098888424BD10021B84803F0E4FF27
:100960000020B4490870401EB5490860B5480078B9
:1009700044282BD006DC412810D0422816D043282A
:1009800034D11BE0452829D05A282FD1312002F03C
:10099000B8FE0121AC4803F0C7FF28E0322002F086
:1009A000B0FE0121A84803F0BFFF20E0332002F091
:1009B000A8FE0121A44803F0B7FF18E0342002F09C
:1009C000A0FE0121A04803F0AFFF10E0352002F0A7
:1009D00098FE01219C4803F0A7FF08E0362002F0B2
:1009E00090FE0121984803F09FFF00E000BF7DE0EA
:1009F00090480078401C8F49087091480068401C5E
:100A00008F49086000246FE090488A49097800EB1C
:100A1000011030F814008D49894A126801EB021167
:100A200031F81410884221DD8849824A127801EB9E
:100A3000021131F81410854A814B1B6802EB031236
:100A400032F81420881A04F0BCFE814A03C27748A9
:100A5000008804F0CDFE05462A460B467C4903C9B2
:100A600004F02AFD7B4A02EBC40203C277487149B5
:100A7000097800EB011030F814007449704A1268CC
:100A800001EB021131F8141088422BDC6F496C4ADB
:100A9000126801EB021131F814106C4A654B1B7897
:100AA00002EB031232F81420881A04F08AFE684A16
:100AB00003C25E48008804F09BFE05462A460B46AA
:100AC000634903C904F0F8FC624A02EBC40203C2A2
:100AD000604800EBC40103C981F000415D4A02EBAC
:100AE000C40203C2601CC4B2082C8DDB70BD2DE9AA
:100AF000FF5F4FF0000AD3464D480088401C4C4928
:100B000008800846008849490988884202D10120A6
:100B1000514908704FF0000A52E04C4845490978A5
:100B200000EB011030F81A004C4931F81A10081A7D
:100B300005280CDB45483F49097800EB011030F8E7
:100B40001A00464931F81A10401A05280EDA0BF13E
:100B5000010000F0FF0B3D483649097800EB011019
:100B600030F81A003D4921F81A0025E03048008885
:100B700004F03EFE0446374800EBCA00D0E90063AB
:100B80003246204604F048FE804689462F492C4ACA
:100B9000126801EB021131F81A0004F029FE4246F6
:100BA0004B46CDE9000104F0DFFBCDE9020104F082
:100BB000DBFD2A4921F81A000AF1010000F0FF0AC2
:100BC000BAF1080FA9DBBBF1080F02D101202449BB
:100BD00008704FF0000B2048007801280AD1204807
:100BE0000078012806D100201B4908701C490870B4
:100BF000FFF7A4FEBDE8FF9F08B50121042003F024
:100C0000FFF9FF20ADF8000010208DF8030003204D
:100C10008DF802006946134802F036FFFF211148A3
:100C200002F0E1FF08BD0000200000201E000020AF
:100C3000220000201C000020420000200004004090
:100C4000180000204500002000080040D8000020C7
:100C500028000020980000204100002030000020E3
:100C60004000002000080140002007E0FE4A32F862
:100C70001020FE4B23F81020421CD0B20428F5DBD4
:100C80000420002109E0FA4A32F81120F74B23F83A
:100C90001020421CD0B24A1CD1B20828F3DB7047A6
:100CA000002007E0F14931F81010F24A22F8101044
:100CB000411CC8B20828F5DBEF494988ED4A51814B
:100CC000ED49C988D181002008E0E84931F81020B9
:100CD000E849103121F81020411CC8B20828F4DB83
:100CE000002008E0E349103131F81020103121F8DC
:100CF0001020411CC8B20828F4DBDF494A88DD49CE
:100D00004A85DD49CA88DB49CA85002008E0D949FF
:100D1000203131F81020103121F81020411CC8B2C8
:100D20000828F4DBD5490988D24A1186D4498A8833
:100D3000D0498A867047002008E0CE49203131F83A
:100D40001010D04A22F81010411CC8B20828F4DB59
:100D5000CB490988CB4A1180C8498988918070475E
:100D6000002007E0C74931F81010C74A22F81010D8
:100D7000411CC8B20828F5DBBD494988C24A5181E7
:100D8000BB49C988D181002007E0BF4931F8102054
:100D9000103121F81020411CC8B20828F5DBB649F3
:100DA0000A88B9490A83B4498A88B7498A830020E6
:100DB00008E0B549103131F81020103121F8102029
:100DC000411CC8B20828F4DBA7490988AE4A11843F
:100DD000A5498A88AC498A84002008E0AA492031C4
:100DE00031F81020103121F81020411CC8B2082819
:100DF000F4DBA2494A88A4494A86A149CA88A24983
:100E0000CA867047002008E09F49303131F8101041
:100E10009E4A22F81010411CC8B20828F4DB9849F9
:100E200049889A4A51809549C988D18070470020E5
:100E300007E0964931F81010954A22F81010411C2D
:100E4000C8B20828F5DB8A490988914A1181884986
:100E500089889181002007E08D4931F810201031F8
:100E600021F81020411CC8B20828F5DB82494A88C5
:100E700087494A838049CA888549CA83002008E097
:100E80008349103131F81020103121F81020411C15
:100E9000C8B20828F4DB74494A887D494A847249FB
:100EA000CA887B49CA84002008E07949203131F89A
:100EB0001020103121F81020411CC8B20828F4DBA2
:100EC0006E490988724A11866D498A8870498A86F6
:100ED0007047002008E06E49303131F810106D4A3B
:100EE00022F81010411CC8B20828F4DB64490988B4
:100EF000684A11806149898891807047002007E025
:100F0000644931F81010644A22F81010411CC8B22C
:100F10000828F5DB564949885F4A51815449C988F8
:100F2000D181002007E05C4931F81020103121F810
:100F30001020411CC8B20828F5DB4F490A885649E1
:100F40000A834D498A8854498A83002008E052491F
:100F5000103131F81020103121F81020411CC8B296
:100F60000828F4DB404909884B4A11843E498A88A5
:100F700049498A84002008E04749203131F810208F
:100F8000103121F81020411CC8B20828F4DB384980
:100F90000A8841490A8736498A883F498A877047C3
:100FA00010B5002007E0314B33F810303B4C24F8EB
:100FB0001030431CD8B20828F5DB2F4B5B88374C28
:100FC00063812D4BDB88E381002007E0334B33F84E
:100FD0001040103323F81040431CD8B20828F5DB2A
:100FE000264B1B882D4C2382254B9C882B4B9C82A7
:100FF000002008E0294B103333F81040103323F859
:101000001040431CD8B20828F4DB194B5C88234BF2
:101010005C85174BDC88214BDC85002008E01F4BEA
:10102000203333F81040103323F81040431CD8B25B
:101030000828F4DB104B1C88184B1C870E4B9C882F
:10104000164B9C87002008E0144B303333F81040D7
:10105000103323F81040431CD8B20828F4DB024BAD
:101060001B880E4C1CE00000E85B000818200020E4
:10107000005C000828200020085C0008F05B0008E5
:10108000F85B00086820002078200020B8200020AD
:10109000C82000200821002018210020582100200D
:1010A000A4F84030FE4B9C88FE4BA3F8444000203F
:1010B00008E0FC4B403333F81040103323F8104065
:1010C000431CD8B20828F4DBF74B1C88F54BA3F877
:1010D0005840F54B9C88F34BA3F85C400621002256
:1010E00013E000200BE0F14B03EB021333F8103058
:1010F000EC4C04EB011424F81030431CD8B208283F
:10110000F1DB4B1CD9B2531CDAB20929E9DD00200E
:1011100008E0E44B903333F81040103323F81040CC
:10112000431CD8B20828F4DBE14B5C88DD4BA3F804
:10113000AA40DF4BDC88DB4BA3F8AE40002008E080
:10114000D84BA03333F81040103323F81040431C21
:10115000D8B20828F4DBD74B1B88D24CA4F8B030A7
:10116000D54B9C88CF4BA3F8B440002008E0CD4B72
:10117000B03333F81040103323F81040431CD8B27A
:101180000828F4DBC84B5C88C64BA3F8CA40C64BA2
:10119000DC88C44BA3F8CE40002008E0C14BC0332C
:1011A00033F81040103323F81040431CD8B20828FD
:1011B000F4DBBF4B1C88BB4BA3F8D840BC4B9C88CE
:1011C000B84BA3F8DC40002008E0B64BD03333F82E
:1011D0001040103323F81040431CD8B20828F4DB29
:1011E000AF4B1B88AF4CA4F8E030AD4B9C88AD4BA7
:1011F000A3F8E440002008E0AA4BE03333F81040A5
:10120000103323F81040431CD8B20828F4DBA64B57
:101210001C88A44BA3F8F840A34B9C88A14BA3F8CF
:10122000FC4010BD10B5002011E000210BE09D4BEB
:1012300003EB001333F81130A04C04EB001424F836
:1012400011304B1CD9B20829F1DB431CD8B2052858
:10125000EBDD0621002213E000200BE0984B03EBAE
:10126000021333F81030954C04EB011424F81030BD
:10127000431CD8B20828F1DB4B1CD9B2531CDAB29C
:101280000929E9DD0A2111E000200BE0854B03EB81
:10129000011333F81030894C04EB011424F810309A
:1012A000431CD8B20828F1DB4B1CD9B20F29EBDD67
:1012B00010BD10B5002007E0824B33F81030824C8F
:1012C00024F81030431CD8B20828F5DB784B5B8833
:1012D0007D4C6381764BDB88E381002007E07A4B0D
:1012E00033F81040103323F81040431CD8B20828BC
:1012F000F5DB704B1B88744C23826F4B9C88724BC0
:101300009C82002008E0704B103333F810401033FB
:1013100023F81040431CD8B20828F4DB624B5C88E9
:10132000694B5C85604BDC88674BDC85002008E0FE
:10133000654B203333F81040103323F81040431C22
:10134000D8B20828F4DB5A4B1C885F4B1C87584BDB
:101350009C885D4B9C87002008E05B4B303333F862
:101360001040103323F81040431CD8B20828F4DB97
:101370004B4B1B88544CA4F84030494B9C88524B33
:10138000A3F84440002008E04F4B403333F81040AE
:10139000103323F81040431CD8B20828F4DB424B2A
:1013A0001C88494BA3F858403F4B9C88464BA3F8F8
:1013B0005C400621002213E000200BE03B4B03EBD6
:1013C000021333F81030404C04EB011424F81030B1
:1013D000431CD8B20828F1DB4B1CD9B2531CDAB23B
:1013E0000929E9DD002008E0374B903333F810403D
:1013F000103323F81040431CD8B20828F4DB2C4BE0
:101400005C88314BA3F8AA40294BDC882E4BA3F80B
:10141000AE40002008E02C4BA03333F810401033CE
:1014200023F81040431CD8B20828F4DB224B1B8859
:10143000254CA4F8B0301F4B9C88234BA3F8B44034
:10144000002008E0204BB03333F81040103323F86D
:101450001040431CD8B20828F4DB134B5C881A4BAD
:10146000A3F8CA40104BDC88174BA3F8CE400020ED
:1014700008E0154BC03333F81040103323F8104008
:10148000431CD8B20828F4DB094B1C880E4BA3F888
:10149000D840074B9C880C4BA3F8DC4000201DE093
:1014A000E85B000858210020005C00085823002059
:1014B000085C0008F85B0008F05B00085824002076
:1014C000582600201820002058220020FD4B33F819
:1014D0001040103323F81040431CD8B20828F5DB25
:1014E000F94B1B88F74CD03CA4F8E030F64B9C88B5
:1014F000F44BD03BA3F8E440002008E0F14B10335C
:1015000033F81040103323F81040431CD8B2082899
:10151000F4DBEE4B1C88EB4BD03BA3F8F840EB4BD5
:101520009C88E84BD03BA3F8FC4010BD10B50020D0
:1015300012E000210CE0E34BD03B03EB001333F847
:101540001130E34C04EB001424F811304B1CD9B2D9
:101550000829F0DB431CD8B20528EADD0621002269
:1015600013E000200BE0DB4B03EB021333F81030E9
:10157000D74C04EB011424F81030431CD8B20828CF
:10158000F1DB4B1CD9B2531CDAB20929E9DD0A217F
:1015900012E000200CE0CB4BD03B03EB011333F8FF
:1015A0001030CB4C04EB011424F81030431CD8B29B
:1015B0000828F0DB4B1CD9B20F29EADD10BD002052
:1015C00007E0C54931F81010C44A22F81010411C38
:1015D000C8B20828F5DBC2494988C04A51800020BA
:1015E00007E0BE4931F81020103121F81020411CCD
:1015F000C8B20828F5DBBB494A88B8494A830020AD
:1016000008E0B649103131F81020103121F81020CF
:10161000411CC8B20828F4DBAB494A88AF494A8468
:10162000002008E0AD49203131F81020103121F8B8
:101630001020411CC8B20828F4DBA4494A88A749F5
:101640004A877047002007E0A34931F81010A64AE6
:1016500022F81010411CC8B20828F5DBA3494988BC
:10166000A14A5180002007E09F4931F81020103135
:1016700021F81020411CC8B20828F5DB99494A8896
:1016800099494A83002008E09749103131F8102029
:10169000103121F81020411CC8B20828F4DB8A4917
:1016A0004A8891494A84002008E08F49203131F866
:1016B0001020103121F81020411CC8B20828F4DB9A
:1016C00082494A8888494A877047002007E0824952
:1016D00031F81010864A22F81010411CC8B20828B0
:1016E000F5DB7F49C988824AD180002007E0804924
:1016F00031F81020103121F81020411CC8B2082800
:10170000F5DB7849CA887A49CA83002008E078491D
:10171000103131F81020103121F81020411CC8B2CE
:101720000828F4DB6849CA887149CA84002008E0A7
:101730006F49203131F81020103121F81020411C60
:10174000C8B20828F4DB6149CA886949CA8770476A
:10175000002007E0604931F810105E4A22F81010AE
:10176000411CC8B20828F5DB6049C988594AD180B4
:10177000002007E0574931F81020103121F81020DF
:10178000411CC8B20828F5DB5649CA885149CA83AA
:10179000002008E04F49103131F81020103121F8B5
:1017A0001020411CC8B20828F4DB4749CA884949BF
:1017B000CA84002008E04749203131F81020103158
:1017C00021F81020411CC8B20828F4DB3F49CA8820
:1017D0004049CA877047002007E03F4931F81010A0
:1017E000444A22F81010411CC8B20828F5DB3C49D5
:1017F0008988404A9180002007E03E4931F8102056
:10180000103121F81020411CC8B20828F5DB3549F9
:101810008A8838498A83002008E03649103131F837
:101820001020103121F81020411CC8B20828F4DB28
:1018300025498A882F498A84002008E02D492031D3
:1018400031F81020103121F81020411CC8B20828AE
:10185000F4DB1E498A8827498A877047002007E001
:101860001D4931F81010244A22F81010411CC8B24A
:101870000828F5DB1D4989881F4A9180002007E070
:101880001D4931F81020103121F81020411CC8B238
:101890000828F5DB13498A8817498A83002008E065
:1018A0001549103131F81020103121F81020411C59
:1018B000C8B20828F4DB04498A880F498A840020CA
:1018C00024E0000028230020E85B0008005C0008FA
:1018D000582500205826002018200020982300209A
:1018E000F85B0008085C000898260020F05B000800
:1018F00058230020D8230020D8260020FE4931F8A4
:101900001020103121F81020411CC8B20828F5DB46
:10191000FA498A88F84920398A877047002007E009
:10192000F74931F81010F74A22F81010411CC8B2DC
:101930000828F5DBF4490988F24A1180002007E005
:10194000F04931F81020103121F81020411CC8B2A4
:101950000828F5DBED490A88EA490A83002008E0F7
:10196000E849103131F81020103121F81020411CC5
:10197000C8B20828F4DBE6490988E24A118400204D
:1019800008E0E049203131F81020103121F8102012
:10199000411CC8B20828F4DBD8490A88D9490A870B
:1019A0007047002007E0D64931F81010D94A22F8D4
:1019B0001010411CC8B20828F5DBD7490988D54A60
:1019C0001180002007E0D34931F81020103121F8B0
:1019D0001020411CC8B20828F5DBCC490A88CD4943
:1019E0000A83002008E0CB49103131F81020103173
:1019F00021F81020411CC8B20828F4DBC44909882A
:101A0000C44A1184002008E0C249203131F8102076
:101A1000103121F81020411CC8B20828F4DBB74966
:101A20000A88BC490A87704730B5002111E00020C0
:101A30000BE0BA4B03EB011333F81030B84C04EB56
:101A4000011424F81030431CD8B20828F1DB4B1CD9
:101A5000D9B20529EBDD0621002213E000200BE0BE
:101A6000B04B03EB021333F81030AD4C04EB011410
:101A700024F81030431CD8B20828F1DB4B1CD9B233
:101A8000531CDAB20929E9DD00220A2113E0002003
:101A90000BE0A44B03EB021333F81030A04C04EB23
:101AA000011424F81030431CD8B20828F1DB4B1C79
:101AB000D9B2531CDAB20D29E9DD0A2112E0002067
:101AC0000CE0964B03EB011333F81040944D0B1DC3
:101AD00005EB031323F81040431CD8B20828F0DBB1
:101AE0004B1CD9B20F29EADD30BD30B5002111E021
:101AF00000200BE08C4B03EB011333F810308B4CC0
:101B000004EB011424F81030431CD8B20828F1DB90
:101B10004B1CD9B20529EBDD0621002213E0002081
:101B20000BE0804B03EB021333F810307F4C04EBD7
:101B3000011424F81030431CD8B20828F1DB4B1CE8
:101B4000D9B2531CDAB20929E9DD0A21002213E0D7
:101B500000200BE0734B03EB021333F81030734C8F
:101B600004EB011424F81030431CD8B20828F1DB30
:101B70004B1CD9B2531CDAB20D29E9DD0A2112E05F
:101B800000200CE0684B03EB011333F81040674D65
:101B90000B1D05EB031323F81040431CD8B2082893
:101BA000F0DB4B1CD9B20F29EADD30BD10B50020A7
:101BB00011E000210BE05E4A02EB001232F8112026
:101BC0005C4B03EB001323F811204A1CD1B2082907
:101BD000F1DB421CD0B20428EBDB002012E0002134
:101BE0000CE0534A02EB001232F81130514C021D46
:101BF00004EB021222F811304A1CD1B20829F0DBA2
:101C0000421CD0B20428EADB10BD10B5002011E060
:101C100000210BE0484A02EB001232F81120474B3A
:101C200003EB001323F811204A1CD1B20829F1DB81
:101C3000421CD0B20428EBDB002012E000210CE0B3
:101C40003F4A02EB001232F811303C4C021D04EB0B
:101C5000021222F811304A1CD1B20829F0DB421CD2
:101C6000D0B20428EADB10BD10B5002011E000213D
:101C70000BE02F4A02EB001232F81120314B03EB3C
:101C8000001323F811204A1CD1B20829F1DB421CB1
:101C9000D0B20428EBDB002012E000210CE0284A3F
:101CA00002EB001232F81130264C021D04EB021236
:101CB00022F811304A1CD1B20829F0DB421CD0B204
:101CC0000428EADB10BD10B5002011E000210BE074
:101CD0001D4A02EB001232F811201C4B03EB0013DB
:101CE00023F811204A1CD1B20829F1DB421CD0B2E2
:101CF0000428EBDB00203EE0F8260020005C000812
:101D00001820002018240020F85B0008085C000858
:101D1000E85B000818270020F05B0008582100202D
:101D2000582E00205823002058220020982F0020F1
:101D3000D82A0020D82D0020182B0020582D002054
:101D4000D8230020D82C0020D82B0020582C00208D
:101D500000210CE0FE4A02EB001232F81130FD4C7B
:101D6000021D04EB021222F811304A1CD1B20829DC
:101D7000F0DB421CD0B20428EADB10BD002007E0F3
:101D8000F54931F81010F54A22F81010411CC8B27C
:101D90000828F5DBF2498988F04A9180F0490988E2
:101DA0001180002007E0ED4931F81020103121F8B2
:101DB0001020411CC8B20828F5DBEA498A88E749A7
:101DC0008A83E8490A88E5490A83002008E0E34954
:101DD000103131F81020103121F81020411CC8B208
:101DE0000828F4DBE0498A88DC498A84DE490988CE
:101DF000DA4A1184002008E0D849203131F8102057
:101E0000103121F81020411CC8B20828F4DBD74952
:101E10008A88D2498A87D5490A88D0490A87704773
:101E2000002007E0CC4931F81010D14A22F81010F8
:101E3000411CC8B20828F5DBC9498988CC4A918081
:101E4000CC4909881180002007E0C94931F81020E9
:101E5000103121F81020411CC8B20828F5DBC14917
:101E60008A88C3498A83BF490A88C1490A830020F6
:101E700008E0BF49103131F81020103121F810204E
:101E8000411CC8B20828F4DBB7498A88B8498A845B
:101E9000B5490988B64A1184002008E0B4492031C8
:101EA00031F81020103121F81020411CC8B2082848
:101EB000F4DBAE498A88AE498A87AC490A88AC49C6
:101EC0000A87704710B5002011E000210BE0AA4AF4
:101ED00002EB001232F81120A84B03EB001323F899
:101EE00011204A1CD1B20829F1DB421CD0B20428CF
:101EF000EBDB002012E000210CE0954A02EB00121F
:101F000032F811309D4C021D04EB021222F8113000
:101F10004A1CD1B20829F0DB421CD0B20428EADB0B
:101F200010BD002007E08C4931F81010944A22F8C7
:101F30001010411CC8B20828F5DB8E498988904AE8
:101F40009180874909881180002007E08C4931F889
:101F50001020103121F81020411CC8B20828F5DBF0
:101F600080498A8886498A837E490A8884490A8307
:101F7000002008E08249103131F81020103121F89A
:101F80001020411CC8B20828F4DB77498A887C49B4
:101F90008A84754909887A4A1184002008E07849C2
:101FA000203131F81020103121F81020411CC8B226
:101FB0000828F4DB6D498A8871498A876B490A8849
:101FC0006F490A877047002007E0634931F8101015
:101FD000694A22F81010411CC8B20828F5DB65498F
:101FE0008988654A9180634909881180002007E04B
:101FF000614931F81020103121F81020411CC8B27D
:102000000828F5DB57498A885B498A8355490A883D
:1020100059490A83002008E05749103131F810204F
:10202000103121F81020411CC8B20828F4DB4E49B9
:102030008A8851498A844C4909884F4A1184002072
:1020400008E04D49203131F81020103121F81020DE
:10205000411CC8B20828F4DB44498A8846498A876B
:1020600042490A8844490A87704710B5002011E0A8
:1020700000210BE0434A02EB001232F81120424BE0
:1020800003EB001323F811204A1CD1B20829F1DB1D
:10209000421CD0B20428EBDB002012E000210CE04F
:1020A000384A02EB001232F81130374C021D04EBB3
:1020B000021222F811304A1CD1B20829F0DB421C6E
:1020C000D0B20428EADB10BD10B5002011E00021D9
:1020D0000BE02E4A02EB001232F811202C4B03EBDE
:1020E000001323F811204A1CD1B20829F1DB421C4D
:1020F000D0B20428EBDB002012E000210CE0254ADE
:1021000002EB001232F81130214C021D04EB0212D6
:1021100022F811304A1CD1B20829F0DB421CD0B29F
:102120000428EADB10BD10B5002038E000210BE0E8
:10213000144A02EB001232F81120174B03EB001384
:1021400023F811204A1CD1B20829F1DB421C25E0FA
:1021500018240020582C002018200020182C0020C3
:10216000F05B0008085C0008E85B0008005C000801
:10217000D82B0020F85B0008D82A0020582B00201C
:10218000182B002058270020582A002098270020CC
:10219000D82900209823002058290020D0B20428F4
:1021A000C4DB002012E000210CE0FE4A02EB00122A
:1021B00032F81130FC4C021D04EB021222F81130EF
:1021C0004A1CD1B20829F0DB421CD0B20428EADB59
:1021D00010BD10B5002011E000210BE0F34A02EB26
:1021E000001232F81120F24B03EB001323F81120F8
:1021F0004A1CD1B20829F1DB421CD0B20428EBDB27
:10220000002012E000210CE0EA4A02EB001232F852
:102210001130E74C021D04EB021222F811304A1C67
:10222000D1B20829F0DB421CD0B20428EADB10BD91
:10223000002007E0E04931F81010E04A22F81010C1
:10224000411CC8B20828F5DBDD494988DB4A5180CA
:10225000DB49C988D180002007E0D84931F8102037
:10226000103121F81020411CC8B20828F5DBD549EF
:102270004A88D2494A83D349CA88D049CA830020B0
:1022800008E0CE49103131F81020103121F810202B
:10229000411CC8B20828F4DBCB494A88C7494A84A4
:1022A000C949CA88C549CA84002008E0C349203109
:1022B00031F81020103121F81020411CC8B2082834
:1022C000F4DBC2494A88BD494A87C049CA88BB492C
:1022D000CA877047002007E0B74931F81010B34AA9
:1022E00022F81010411CC8B20828F5DBB44949880F
:1022F000AE4A5180B649C988D180002007E0AB4979
:1023000031F81020103121F81020411CC8B20828E3
:10231000F5DBAC494A88A5494A83AA49CA88A3493A
:10232000CA83002008E0A149103131F81020103193
:1023300021F81020411CC8B20828F4DBA2494A88C1
:102340009A494A84A049CA889849CA84002008E06A
:102350009649203131F81020103121F81020411C0D
:10236000C8B20828F4DB99494A8890494A879749B6
:10237000CA888E49CA87704710B5002011E0002135
:102380000BE0944A02EB001232F81120924B03EB5F
:10239000001323F811204A1CD1B20829F1DB421C9A
:1023A000D0B20428EBDB002012E000210CE0814ACF
:1023B00002EB001232F81130874C021D04EB0212BE
:1023C00022F811304A1CD1B20829F0DB421CD0B2ED
:1023D0000428EADB10BD002007E0774931F810102F
:1023E0007E4A22F81010411CC8B20828F5DB784953
:1023F00049887A4A51807249C988D180002007E013
:10240000764931F81020103121F81020411CC8B253
:102410000828F5DB6B494A8870494A836949CA88AC
:102420006E49CA83002008E06C49103131F8102051
:10243000103121F81020411CC8B20828F4DB624991
:102440004A8866494A846049CA886449CA84002027
:1024500008E06249203131F81020103121F81020B5
:10246000411CC8B20828F4DB58494A885B494A87AE
:102470005649CA885949CA877047002007E04E4923
:1024800031F81010534A22F81010411CC8B2082825
:10249000F5DB4F4949884F4A51804D49C988D18061
:1024A000002007E04B4931F81020103121F81020AE
:1024B000411CC8B20828F5DB42494A8845494A838D
:1024C0004049CA884349CA83002008E04149103185
:1024D00031F81020103121F81020411CC8B2082812
:1024E000F4DB39494A883B494A843749CA88394923
:1024F000CA84002008E03749203131F8102010311B
:1025000021F81020411CC8B20828F4DB2F494A8862
:1025100030494A872D49CA882E49CA87704700B575
:10252000FEF7A2FBFEF7BCFBFEF705FCFEF718FC6E
:10253000FEF768FCFEF77BFCFEF7CBFCFEF7DEFC4B
:10254000FFF73DF8FFF7C1F8FFF745F9FFF7E6F9A8
:10255000FFF778F8FFF7FCF8FFF780F9FFF721FAAB
:10256000FEF71EFDFEF75EFEFEF7A3FEFEF7DEFFA2
:10257000FFF75AFAFFF7B9FAFFF77FFFFFF72BFFD4
:10258000FFF7FAFEFFF7A6FEFFF752FEFFF721FE68
:10259000FFF7C9FDFFF798FDFFF767FDFFF713FD94
:1025A0001EE0000098230020582900205828002011
:1025B000D828002058230020182000209828002028
:1025C000F05B0008085C0008E85B0008005C00089D
:1025D000F85B000858270020D82700209827002003
:1025E000FFF79FFCFFF76EFCFFF71AFCFFF7C6FB37
:1025F000FFF769FBFFF738FBFFF707FBFFF7D6FA9A
:1026000000BD002007E04E4A32F810204D4B23F861
:102610001020421CD0B20428F5DB0420002109E080
:10262000494A32F81120474B23F81020421CD0B2FF
:102630004A1CD1B20828F3DB704770B500F049FAA4
:10264000401C42490880002407E0414830F814004B
:10265000404921F81400601C84B2082CF5DB0125E8
:1026600012E000240CE0681E3B4901EB001030F83A
:102670001400384901EB051121F81400601C84B2E4
:10268000082CF0DB681C85B2304800888542E8DD04
:1026900070BD30B502460B465C1C2C4D2C800020D2
:1026A00007E02B4C34F810402A4D25F81040441C0C
:1026B000E0B20828F5DB012111E000200BE002EB7D
:1026C0000114103C34F81040224D05EB011525F89B
:1026D0001040441CE0B20828F1DB4C1CE1B21B4C5A
:1026E0002488A142E9DD30BD002007E0184931F817
:1026F0001010184A22F81010411CC8B20828F5DB47
:10270000002008E0124931F810201249103121F858
:102710001020411CC8B20428F4DB002009E00F4956
:1027200031F810300B491031021D21F81230411CD4
:10273000C8B20428F3DB0121044A1180704700006D
:10274000E85B000830000020005C00084200002028
:1027500018200020D8000020D8300020085C000895
:1027600070B504460B46D9B211E000200BE0CD1A3B
:1027700004EB051535F81050F94E06EB011626F856
:102780001050451CE8B20828F1DB4D1CE9B291421B
:10279000EBDD70BD02464C2A02D1522900D1072040
:1027A000462A02D1422900D11020522A02D14C29B6
:1027B00000D10320422A02D1462900D10C207047C3
:1027C000F0B505460C4600260027132D77D2DFE82A
:1027D00005F0AD0A131C252E374049525B646D7716
:1027E0008089929BA400E01C82B22146DD48FFF75D
:1027F000B7FF022603279AE0E01C82B22146DA489E
:10280000FFF7AEFF0326032791E0E01D82B22146C9
:10281000D648FFF7A5FF0326072788E0E01C82B211
:102820002146D348FFF79CFF032603277FE0E01CE7
:1028300082B22146CF48FFF793FF0426032776E0B4
:10284000E01D82B22146CC48FFF78AFF0426072705
:102850006DE0E01D82B22146C848FFF781FF0326E4
:10286000072764E0E01D82B22146C548FFF778FFE4
:10287000042607275BE0E01D82B22146C148FFF72E
:102880006FFF0426072752E0E01C82B22146BE48B3
:10289000FFF766FF0226032749E0E01C82B22146CB
:1028A000BA48FFF75DFF0326032740E0E01D82B230
:1028B0002146B748FFF754FF0326072737E035E0E6
:1028C000E01C82B22146B348FFF74AFF03260327E4
:1028D0002DE0E01C82B22146AF48FFF741FF0426FD
:1028E000032724E0E01D82B22146AC48FFF738FF01
:1028F000042607271BE0E01D82B22146A848FFF707
:102900002FFF0326072712E0E01D82B22146A548CB
:10291000FFF726FF0426072709E0E01D82B22146C3
:10292000A148FFF71DFF0426072700E000BF00BFF6
:1029300006EB860007EB4000C0B2F0BD10B50346C1
:10294000272A14D14C2B02D1522900D10820462B22
:1029500002D1422900D11120522B02D14C2900D1A1
:102960000620422B17D1462915D10F2013E0322A19
:1029700011D14C2B01D1522903D0522B02D14C2919
:1029800000D10920422B01D1462903D0462B02D188
:10299000422900D1122010BD02464C2A01D15229F1
:1029A0000BD0522A01D14C2907D0462A01D1422905
:1029B00003D0422A03D1462901D1012000E00020A2
:1029C000704702464C2A02D1522900D10420462ADF
:1029D00002D1422900D10D20522A02D14C2900D126
:1029E0000220422A02D1462900D10B20704710B59F
:1029F0000346272A12D14C2B01D1522903D0522B46
:102A000002D14C2900D10520422B01D1462903D007
:102A1000462B19D1422917D10E2015E0322A13D1A5
:102A20004C2B02D1522900D10620462B02D142293B
:102A300000D10F20522B02D14C2900D10820422B6B
:102A400002D1462900D1112010BD02464C2A01D1E5
:102A5000522903D0522A02D14C2900D10120422A06
:102A600001D1462903D0462A02D1422900D10A20A9
:102A7000704710B50346272A14D14C2B02D1522996
:102A800000D10220462B02D1422900D10B20522B2B
:102A900002D14C2900D10420422B19D1462917D14B
:102AA0000D2015E0322A13D14C2B02D1522900D12E
:102AB0000320462B02D1422900D10C20522B02D1F7
:102AC0004C2900D10720422B02D1462900D11020E9
:102AD00010BDF0B501250024002605E33348405D14
:102AE00041287DDB3148405D5A2879DC2F49681C3C
:102AF000085C4128F5DB681C085C5A28F5DC0B46AD
:102B00006A1C995C1A46505DFFF746FF00286CD09E
:102B10002649A81C085C322803D0A81C085C27287A
:102B200046D1DFF888C0AB1C1CF803206B1C1CF8D6
:102B300003106346585DFFF79CFF07462146FFF7E9
:102B40003FFE06460A2096FBF0F02844C5B20A2054
:102B500096FBF0F100FB1160401C204484B2C3E2FC
:102B6000D83000205827002098270020D8270020A0
:102B70005828002098280020D82800205829002014
:102B8000D8290020582A0020D82A0020182B0020FD
:102B9000582B0020D82B0020182C0020582C002067
:102BA000D82C0020582D0020D82D00204C000020CB
:102BB000FB4B6A1C995C1A46505DFFF746FF0746BF
:102BC0002146FFF7FDFD06460A2096FBF0F028445B
:102BD000C5B20A2096FBF0F100FB1160401C01E039
:102BE00052E002E0204484B27EE2ED48405D4C2891
:102BF00021D006DC422839D0442811D046283ED1C5
:102C00002BE0522820D0552839D104F10F0082B290
:102C10002146E448FFF7A4FD04F1100084B22FE040
:102C200004F10F0082B22146DF48FFF799FD04F15D
:102C3000100084B224E0E01C82B22146DB48FFF79A
:102C40008FFD201D84B21BE0E01C82B22146D848D3
:102C5000FFF786FD201D84B212E0E01C82B22146FF
:102C6000D448FFF77DFD201D84B209E0E01C82B24C
:102C70002146D148FFF774FD201D84B200E000BF5B
:102C800000BF681CC5B22FE2C548405D412874DB17
:102C9000C348405D5A2870DCC149681C085C27287D
:102CA0006BD10B46AA1C995C1A46505DFFF774FE67
:102CB000F0B3BB49E81C085C322803D0E81C085C70
:102CC00027281ED1DFF8D8C2EB1C1CF80320AB1C50
:102CD0001CF803106346585DFFF789FE074621463E
:102CE000FFF76EFD06460A2096FBF0F02844C5B2B9
:102CF0000A2096FBF0F100FB1160401C204484B2D6
:102D0000F2E1A74BAA1C995C1A46505DFFF759FEE9
:102D100007462146FFF754FD06460A2096FBF0F0D1
:102D20002844C5B20A2096FBF0F100FB116000E0D8
:102D300003E0401C204484B2D6E19948405D4C2811
:102D400042D006DC42285AD0442822D046285FD1FF
:102D50004CE0522841D055285AD19149A81C085C12
:102D600021280BD104F1090082B221469348FFF7D4
:102D7000F7FC04F10A0084B20AE04EE004F10F000F
:102D800082B221468D48FFF7EBFC04F1100084B2BB
:102D90003FE08349A81C085C21280AD104F10900FE
:102DA00082B221468648FFF7DBFC04F10A0084B2B8
:102DB00009E004F10F0082B221468148FFF7D0FC00
:102DC00004F1100084B224E0E01C82B221467D4868
:102DD000FFF7C6FC201D84B21BE0E01C82B2214636
:102DE0007948FFF7BDFC201D84B212E0E01C82B2DE
:102DF00021467648FFF7B4FC201D84B209E0E01CB0
:102E000082B221467248FFF7ABFC201D84B200E07D
:102E100000BF00BFA81CC5B266E16148405D412803
:102E200074DB5F48405D5A2870DC5D49681C085CB3
:102E300032286BD10B46AA1C995C1A46505DFFF7ED
:102E4000ABFDE0B35649E81C085C322803D0E81C0F
:102E5000085C27281ED1DFF848C1EB1C1CF80320B2
:102E6000AB1C1CF803106346585DFFF767FD07466F
:102E70002146FFF7A5FC06460A2096FBF0F0284401
:102E8000C5B20A2096FBF0F100FB1160401C204403
:102E900084B229E1424BAA1C995C1A46505DFFF7A7
:102EA00079FC07462146FFF78BFC06460A2096FB75
:102EB000F0F02844C5B20A2096FBF0F100E005E0EE
:102EC00000FB1160401C204484B20DE13448405D99
:102ED0004C2842D006DC422861D0442822D0462823
:102EE0007CD17CE0522849D0552877D12C49A81CA8
:102EF000085C21280BD104F10D0082B2214635482F
:102F0000FFF72EFC04F10E0084B20AE08EE004F11B
:102F1000130082B221462F48FFF722FC04F114006F
:102F200084B27FE01E49A81C085C21280AD104F164
:102F30000D0082B221462848FFF712FC04F10E0072
:102F400084B209E004F1130082B221462248FFF75F
:102F500007FC04F1140084B264E0E01C82B2214654
:102F60001248FFF7FDFB201D84B2E01C82B221460F
:102F70000E48FFF7F5FB201D84B253E0E01C82B23F
:102F800021460B48FFF7ECFB201D84B2E01C82B207
:102F900021460748FFF7E4FB201D84B242E02FE002
:102FA0004C000020582100205822002098230020A7
:102FB00058230020D8230020182400205824002063
:102FC000582500209826002058260020D8260020CA
:102FD00018270020582E0020982F002021E0E01C08
:102FE00082B221464548FFF7BBFB201D84B2E01C9E
:102FF00082B221464148FFF7B3FB201D84B211E0A5
:10300000E01C82B221463E48FFF7AAFB201D84B295
:10301000E01C82B221463A48FFF7A2FB201D84B291
:1030200000E000BF00BFA81CC5B25DE03548405DB0
:10303000412857DB3348405D5A2853DC3149681C2E
:10304000085C21284ED10846405D4C2821D006DC82
:10305000422839D0442811D046283ED12BE05228AE
:1030600020D0552839D104F1090082B221462648E2
:10307000FFF776FB04F10A0084B22FE004F10900A7
:1030800082B221462148FFF76BFB04F10A0084B2AB
:1030900024E0E01C82B221461D48FFF761FB201DA1
:1030A00084B21BE0E01C82B221461A48FFF758FBAD
:1030B000201D84B212E0E01C82B221460F48FFF7C7
:1030C0004FFB201D84B209E0E01C82B221460C486F
:1030D000FFF746FB201D84B200E000BF00BF681C64
:1030E000C5B201E0681CC5B20648405D21287FF4E6
:1030F000F5AC601E84B22046F0BD0000D82300204D
:10310000182400204C0000205821002058220020C4
:10311000982300205823002008B508208DF80000CF
:1031200000208DF801008DF8020001208DF80300C9
:10313000684600F052FB09208DF8000000208DF851
:1031400001008DF8020001208DF80300684600F0B0
:1031500044FB0A208DF8000000208DF801008DF856
:10316000020001208DF80300684600F036FB08BD20
:103170001CB5FDF795F90121084600F041FF022139
:10318000042000F097FD0420009000208DF804003A
:103190000C208DF8050001208DF80600684600F02F
:1031A00093FB0321042000F085FD08200090684671
:1031B00000F08AFB0421084600F07CFD10200090FE
:1031C000684600F081FBFFF7A7FF1CBD10B50A2081
:1031D00000F0ABF804212F4800F0E9FCB8B92E4804
:1031E000006808B9012000E000202B490860032195
:1031F0002A48FFF74EFAFA2029490880FDF79EFB7E
:103200000121284801F090FB5A202749087004202A
:1032100000F0D1FB10BD10B50A2000F086F8102197
:103220001C4800F0C4FCA8B92048006808B9012077
:1032300000E000201D490860FFF756FAFA201849FF
:103240000880FDF77BFB0121164801F06DFB59203A
:1032500015490870102000F0AEFB10BD10B50A2013
:1032600000F063F808210B4800F0A1FC68B90121C7
:103270000A48FFF70EFA4FF4FA7009490880FDF783
:103280005DFB0121074801F04FFB082000F093FB94
:1032900010BD000000180140948121422820002028
:1032A000200000200004004045000020940123423B
:1032B00010B56FF0040000F0DAFA2E4800682E49CD
:1032C000B0FBF1F02D4908700846007800EB400192
:1032D000C1EBC0104FF6FF7101EAC0002849088019
:1032E00010BD0146254A12784A434FF0E0235A6147
:1032F00000229A611A46126942F001021A6100BF67
:103300004FF0E022106900F001021AB100F480329F
:10331000002AF5D04FF0E022126922F001024FF0AE
:10332000E0231A6100229A6170470146144A12880C
:103330004A434FF0E0235A6100229A611A4612690B
:1033400042F001021A6100BF4FF0E022106900F064
:1033500001021AB100F48032002AF5D04FF0E022C9
:10336000126922F001024FF0E0231A6100229A61F3
:10337000704700000000002000127A004600002084
:103380004800002010B54FF4A06000F021FA10BDF5
:1033900008B525208DF8000001208DF801008DF87A
:1033A00002008DF80300684600F017FA08BD00B56A
:1033B00085B0012144F2040000F022FE4FF40070B9
:1033C000ADF8100018208DF8130003208DF81200BE
:1033D00004A9EA4800F058FB4FF48060ADF81000F3
:1033E00004208DF8130004A9E44800F04DFB4FF4CD
:1033F000165000900020ADF80400ADF80600ADF8BE
:1034000008000C20ADF80A000020ADF80C00694659
:10341000DB4801F0AAFD012240F22551D84801F015
:103420003CFE0121D64801F02CFEFFF7B1FF05B0AC
:1034300000BD01460A291AD2DFE801F00507090B91
:103440000D0F11131517302011E031200FE032203D
:103450000DE033200BE0342009E0352007E0362072
:1034600005E0372003E0382001E0392000BF00BF2D
:1034700070472DE9F0470446642094FBF0F0C7B292
:103480000A2094FBF0F00A2190FBF1F201FB1200FC
:1034900000F0FF080A2094FBF0F100FB114000F05F
:1034A000FF093846FFF7C5FF05464046FFF7C1FF55
:1034B00006464846FFF7BDFF8246302D0AD0294612
:1034C000AF4801F04BFE00BF4021AD4801F0B4FE13
:1034D0000128F9D1302D01D0012000E00020302E4C
:1034E00001D0012100E00021084350B13146A44839
:1034F00001F034FE00BF4021A14801F09DFE0128EB
:10350000F9D151469E4801F029FE00BF40219C4858
:1035100001F092FE0128F9D10D21994801F01EFE1B
:1035200000BF4021964801F087FE0128F9D10A2109
:10353000934801F013FE00BF4021914801F07CFE4A
:103540000128F9D140218E4801F083FEBDE8F087C3
:103550002DE9F04F87B0044642F2107094FBF0F072
:10356000C0B206904FF47A7094FBF0F00A2190FB01
:10357000F1F201FB1200C0B20590642094FBF0F060
:1035800090FBF1F201FB1200C0B204900A2094FB00
:10359000F0F090FBF1F201FB1200C0B203900A20A0
:1035A00094FBF0F100FB1140C0B202900698FFF7C7
:1035B00040FF05460598FFF73CFF06460498FFF7D5
:1035C00038FF07460398FFF734FF80460298FFF75D
:1035D00030FF0190302D0CD04FF00109294668488A
:1035E00001F0BCFD00BF4021654801F025FE012827
:1035F000F9D1B9F1010F01D1012000E00020302EF6
:1036000001D0012100E00021084360B14FF0010A20
:1036100031465B4801F0A2FD00BF4021584801F04F
:103620000BFE0128F9D1BAF1010F01D1012000E010
:103630000020302F01D0012100E00021084360B1BB
:103640004FF0010B39464E4801F088FD00BF402184
:103650004B4801F0F1FD0128F9D1BBF1010F01D177
:10366000012000E00020B8F1300F01D0012100E07E
:103670000021084350B14146414801F06FFD00BFB1
:1036800040213F4801F0D8FD0128F9D13C4801997B
:1036900001F064FD00BF4021394801F0CDFD012853
:1036A000F9D10D21364801F059FD00BF40213448C1
:1036B00001F0C2FD0128F9D10A21314801F04EFD87
:1036C00000BF40212E4801F0B7FD0128F9D140216B
:1036D0002B4801F0BEFD07B0BDE8F08F10B50446E1
:1036E0000BE014F8011B264801F038FD00BF402113
:1036F000234801F0A1FD0128F9D120782128F0D13B
:1037000010BD10B5044621461D4801F027FD00BF3D
:1037100040211B4801F090FD0128F9D140211848B3
:1037200001F097FD10BD10B540F22551144801F08D
:1037300099FD08B31248001D0088C1B211480278F3
:103740000078401C0F4B18700F48815418460078C1
:10375000401E0D49085C21280ED108460078232818
:103760000AD100201946087001200849087040F26B
:103770002551034801F06DFD10BD00000008014017
:10378000003801407E0000204C0000204B0000204B
:103790000948804709480047FEE7FEE7FEE7FEE7E5
:1037A000FEE7FEE7FEE7FEE7FEE7FEE70448054921
:1037B000054A064B70470000570300083101000816
:1037C000785000207856002078520020785200204F
:1037D00031490143314A1160704770B5002100231F
:1037E0000F22C47804B32D4C246804F4E064C4F5BB
:1037F000E064210AC1F10403CA40447804FA03F1E9
:103800008478144021430901254C0678A155047899
:1038100004F01F050124AC4005786D11AD0005F1E1
:10382000E025C5F8004109E0047804F01F050124F3
:10383000AC401C4D0678761145F8264070BD1A4AFA
:103840000A400243154B1B1F1A60704739B1134AD7
:10385000121D12680243114B1B1D1A6006E00F4A2D
:10386000121D126882430D4B1B1D1A6070470428FD
:1038700008D14FF0E021096941F004014FF0E02246
:10388000116107E04FF0E021096921F004014FF0D8
:10389000E0221161704700000000FA050CED00E025
:1038A00000E400E080E100E080FFFF1F00204449C9
:1038B0000860091D0860091D0860091D086041486D
:1038C0003F4914310860704700213D498279002A40
:1038D0003AD00A46126803689A430B461A600A1DDA
:1038E000126803689A430B1D1A60027911440A6832
:1038F00003681A430A60324A0832126803689A431E
:103900002F4B08331A601A1D126803689A432C4B18
:103910000C331A604279102A0ED11A1F12680368FC
:103920001A43274B08331A601A1D126803681A439A
:10393000234B0C331A600DE02149427911440A6887
:1039400003681A430A6005E0027911440A680368B3
:103950009A430A6070470021016001710C21417196
:103960000021817170471649103109680143144ADA
:1039700010321160704701460020114A143212685B
:103980000A400AB1012000E0002070470C491431C0
:1039900008607047014600200022094B1B6803EABB
:1039A0000102074B14331B680B4013B10AB101200D
:1039B00000E00020704702491431086070470000A1
:1039C00000040140FFFF0F0010B50446CC488442BC
:1039D00008D10121042000F02DFB0021042000F07B
:1039E00029FB46E0C748844208D10121082000F0A5
:1039F00021FB0021082000F01DFB3AE0C248844270
:103A000008D10121102000F015FB0021102000F04A
:103A100011FB2EE0BD48844208D10121202000F096
:103A200009FB0021202000F005FB22E0B848844279
:103A300008D10121402000F0FDFA0021402000F0D3
:103A4000F9FA16E0B348844208D10121802000F041
:103A5000F1FA0021802000F0EDFA0AE0AE4884423D
:103A600007D10121801500F0E5FA0021A01500F032
:103A7000E1FA10BD10B50121084600F0DBFA002183
:103A8000012000F0D7FA10BD2DE9F04102460025D3
:103A90000026002000230024002791F803C00CF02A
:103AA0000F0591F803C00CF0100CBCF1000F03D00F
:103AB00091F802C04CEA050591F800C0BCF1000F76
:103AC00031D0146800202BE04FF0010C0CFA00F309
:103AD000B1F800C00CEA03069E4220D183004FF0EB
:103AE0000F0C0CFA03F7BC4305FA03FC4CEA040480
:103AF00091F803C0BCF1280F06D14FF0010C0CFA6D
:103B000000FCC2F814C00AE091F803C0BCF1480FF1
:103B100005D14FF0010C0CFA00FCC2F810C0401C9B
:103B20000828D1D31460B1F800C0BCF1FF0F34DD18
:103B3000546800202EE000F1080C4FF0010808FA4C
:103B40000CF3B1F800C00CEA03069E4221D18300B9
:103B50004FF00F0C0CFA03F7BC4305FA03FC4CEAD8
:103B6000040491F803C0BCF1280F05D100F1080C42
:103B700008FA0CF8C2F8148091F803C0BCF1480FA1
:103B800007D100F1080C4FF0010808FA0CF8C2F850
:103B90001080401C0828CED35460BDE8F0814FF659
:103BA000FF710180022181700421C17070470246BB
:103BB000002093680B400BB1012000E0002070470B
:103BC0000146886880B2704702460020D3680B40E7
:103BD0000BB1012000E0002070470146C86880B2A8
:103BE000704701617047416170470AB1016100E0AF
:103BF00041617047C16070474FF480320A4382616F
:103C00008161826182698269704702460020434B6C
:103C100018684FF68073184040EA021008433F4B83
:103C2000186070473E49C8617047F0B50A460023E6
:103C300000240021002500F00046B6F1004F02D11B
:103C4000364EF16901E0354E7168C0F3034583B229
:103C500000F44016B6F5401F08D121F070612F4ED8
:103C6000766826F070662D4F7E6012E000F48016B4
:103C7000B6F5801F06D1032606FA05F4A14341F0EC
:103C8000706106E0460D360103FA06F6B14341F0D5
:103C9000706122B1460D360103FA06F6314300F099
:103CA0000046B6F1004F02D11C4EF16101E01B4EFF
:103CB0007160F0BD30B500228B071C0F0F2303FA93
:103CC00004F2164B08338C1053F824309343134CF2
:103CD00008348D1044F8253023468C1053F82430D6
:103CE0008C07240F00FA04F423430C4C08348D1085
:103CF00044F8253030BD0A49DC31086070470000C7
:103D000000080140000C0140001001400014014077
:103D100000180140001C014000200140000001404B
:103D200000002042DF48006840F00100DD490860E3
:103D300008464068DC490840DA494860084600689F
:103D4000DA490840D74908600846006820F4802016
:103D500008600846406820F4FE0048604FF41F00E9
:103D600088607047CF49096821F48031CD4A1160DD
:103D70001146096821F480211160B0F5803F03D01D
:103D8000B0F5802F0ED106E0C649096841F48031B4
:103D9000C44A116007E0C349096841F4A021C14A3F
:103DA000116000E000BF00BF704710B5014600225F
:103DB000002300204A11012A02D1BA4C236806E0F0
:103DC000022A02D1B74C236A01E0B64C636A01F0C3
:103DD0001F02012494401C400CB1012000E000208F
:103DE00010BD38B5002000900024002500BF312010
:103DF000FFF7DBFF05460098401C00900098B0F5E7
:103E0000A06F01D0002DF2D03120FFF7CEFF08B116
:103E1000012400E00024204638BD01460020A14ACC
:103E2000106820F0F80040EAC10010607047A04917
:103E300008607047024600209A4B586820F47C10B6
:103E400042EA01031843974B586070479849086647
:103E5000704701460020934A506820F00300084351
:103E6000506070478F48406800F00C007047014672
:103E700000208C4A506820F0F000084350607047E2
:103E800001460020874A506820F4E06008435060F3
:103E9000704701460020834A506820F4605040EA91
:103EA000C1005060704729B17E4A527A02437D4B6F
:103EB0005A7204E07B4A527A82437A4B5A727047B4
:103EC0007B49D8310860704701460020754A506828
:103ED00020F440400843506070470021714A20326E
:103EE0001170704A82F82010012802D004280AD1EB
:103EF00004E001216B4A2032117005E00521694A76
:103F00002032117000E000BF00BF704769490860AF
:103F100070476449096A0143624A11627047654902
:103F200044390860704730B5002100220024002386
:103F30005C4D6D6805F00C0121B1042905D00829FC
:103F400023D105E05C4D056022E05B4D05601FE07C
:103F5000544D6D6805F47012524D6D6805F480344F
:103F6000022505EB92421CB9544D554305600BE008
:103F70004C4D6D6805F400351DB1504D554305603D
:103F800002E04D4D5543056002E04B4D056000BF1A
:103F900000BF444D6D6805F0F0010909484D6B5CA8
:103FA0000568DD4045603F4D6D6805F4E061090A34
:103FB000434D6B5C4568DD4085603A4D6D6805F4A6
:103FC0006051C90A3E4D6B5C4568DD40C560354DAA
:103FD0006D6805F44041890B3A4D6B5CC568B5FBD3
:103FE000F3F5056130BD29B12E4A526902432D4BCC
:103FF0005A6104E02B4A526982432A4B5A61704746
:1040000029B1284A92690243264B9A6104E0254A65
:1040100092698243234B9A61704729B1214AD26940
:104020000243204BDA6104E01E4AD26982431D4BF1
:10403000DA61704729B11B4AD2680243194BDA6032
:1040400004E0184AD2688243164BDA60704729B1FF
:10405000144A12690243134B1A6104E0114A1269AF
:104060008243104B1A61704712494039086070470B
:104070000F49C86470470B49C87170470948406AC6
:1040800040F0807007494862704701460020054AA9
:1040900092680A400AB1012000E0002070470149FF
:1040A00088727047001002400000FFF8FFFFF6FE24
:1040B000000042428004424200127A0000093D00A2
:1040C0007F0000208F00002010B50446FE48844287
:1040D00008D10121C014FFF7ADFF0021E014FFF764
:1040E000A9FFC4E0B4F1804F08D101210846FFF7D1
:1040F000AEFF00210120FFF7AAFFB8E0F348844299
:1041000008D101210220FFF7A2FF00210220FFF7C2
:104110009EFFACE0EE48844208D101210420FFF765
:1041200096FF00210420FFF792FFA0E0E9488442B7
:1041300008D101210820FFF78AFF00210820FFF79E
:1041400086FF94E0E448844208D101211020FFF763
:104150007EFF00211020FFF77AFF88E0DF488442CD
:1041600008D101212020FFF772FF00212020FFF756
:104170006EFF7CE0DA48844208D101214014FFF749
:1041800059FF00216014FFF755FF70E0D5488442C5
:1041900009D10121C804FFF74DFF00214FF4002091
:1041A000FFF748FF63E0D048844209D101210805A8
:1041B000FFF740FF00214FF48010FFF73BFF56E070
:1041C000CA48844209D101214805FFF733FF002185
:1041D0004FF40010FFF72EFF49E0C548844208D194
:1041E00001214020FFF733FF00214020FFF72FFF80
:1041F0003DE0C048844208D101218020FFF727FF1D
:1042000000218020FFF723FF31E0BB48844208D122
:1042100001218015FFF71BFF0021A015FFF717FFF5
:1042200025E0B648844209D101210804FFF702FFC6
:1042300000214FF48030FFF7FDFE18E0B0488442C3
:1042400009D101214804FFF7F5FE00214FF40030A9
:10425000FFF7F0FE0BE0AB48844208D1012188044F
:10426000FFF7E8FE00214FF48020FFF7E3FE10BDCA
:1042700000220288944B98420ED0994B98420BD062
:10428000B0F1804F08D0914B984205D0904B9842A6
:1042900002D0904B984204D14FF68F731A404B884E
:1042A0001A438D4B984207D08C4B984204D04FF65E
:1042B000FF431A40CB881A4302808B8883850B8882
:1042C0000385814B98420BD0854B984208D08B4B8D
:1042D000984205D08A4B984202D08A4B984201D12D
:1042E0000B7A038601238382704770B50024002275
:1042F0000023058C4FF6FE7635400584028C8388BA
:10430000048B4FF68F752C40B51E2C400D882C4326
:10431000751E2A400D892A434D882A436A4DA842BA
:104320000BD06F4DA84208D0744DA84205D0744DF3
:10433000A84202D0734DA84213D14FF6F7752A4018
:104340004D892A434FF6FB752A408D882A434FF644
:10435000FF652B404FF6FF552B408D892B43CD89B0
:104360002B4383800483CD888586028470BD70B51D
:10437000002400220023058C4FF6EF76354005849B
:10438000028C8388048B48F6FF752C404FF6FF455E
:104390002C400D884FF6FF7606EA05252C434FF694
:1043A000DF752A400D8906EA05152A434D8806EA7D
:1043B00005152A43444DA84202D0494DA8421DD1BB
:1043C0004FF67F752A404D894FF6FF7606EA0515B0
:1043D0002A434FF6BF752A408D8806EA05152A4301
:1043E0004FF6FF352B404FF2FF752B408D8906EAC3
:1043F00085052B43CD8906EA85052B4383800483FD
:10440000CD880587028470BD70B50024002200238A
:10441000058C4FF6FF6635400584028C8388848BBB
:104420004FF68F752C404FF6FC752C400D882C43B1
:104430004FF6FF552A400D894FF6FF7606EA05250F
:104440002A434D8806EA05252A431F4DA84202D07B
:10445000234DA8421DD14FF2FF752A404D894FF6DA
:10446000FF7606EA05252A434FF6FF352A408D8858
:1044700006EA05252A434EF6FF752B404DF6FF75DB
:104480002B408D8906EA05152B43CD8906EA0515D3
:104490002B4383808483CD888587028470BD70B56B
:1044A000002200230024058C4EF6FF76354005845B
:1044B000038C8488828B48F6FF752A404FF6FF45AF
:1044C0002A400D8820E00000002C0140000400403C
:1044D00000080040000C00400010004000140040A4
:1044E00000340140004C01400050014000540140A4
:1044F00000180040001C0040002000400040014027
:1045000000440140004801404FF6FF7606EA0525C9
:104510002A434DF6FF752B400D8906EA05352B43DE
:104520004D8806EA05352B43FA4DA84202D0FA4DD4
:10453000A84208D14BF6FF752C408D894FF6FF76C7
:1045400006EA85152C4384808283CD88A0F84050EC
:10455000038470BD828B4FF2FF331A408283828BBB
:104560004FF6FF7303EA01231A4382837047F0B5C5
:104570000C461546002200210026078C4EF6FF7CD3
:1045800007EA0C070784828B018C4FF6FF7707EA56
:10459000043640F6FF473A404FF6FF7707EA052713
:1045A0003A434FF6FF7707EA03373A43D94FB84209
:1045B0000ED0D94FB8420BD0B0F1804F08D0D74FB2
:1045C000B84205D0D64FB84202D0D64FB84206D135
:1045D0004DF6FF77394046F48057394305E047F6FA
:1045E000FF57394044F48057394382830184F0BD3A
:1045F000828B4FF6F3731A408283828B0A43828345
:104600007047F0B50C461546002200210026078CA5
:104610004FF6FF6C07EA0C070784828B018C4FF67C
:10462000FF7707EA04264FF60C773A404FF6FF77FC
:1046300007EA03172F433A43B64FB8420ED0B64F9E
:10464000B8420BD0B0F1804F08D0B44FB84205D07B
:10465000B34FB84202D0B34FB84206D14FF6FF571E
:10466000394046F48077394305E04FF2FF5739402F
:1046700044F48077394382830184F0BD028B4FF28A
:10468000FF331A400283028B4FF6FF7303EA0123C4
:104690001A4302837047F0B50C46154600220021EC
:1046A0000026078C4FF6EF7C07EA0C070784028B85
:1046B000018C4FF6FF7707EA041640F6FF473A40B1
:1046C0004FF6FF7707EA03373A434FF6FF7707EADB
:1046D00005273A438F4FB8420ED08F4FB8420BD0C8
:1046E000B0F1804F08D08D4FB84205D08C4FB84202
:1046F00002D08C4FB84206D14FF6DF77394046F0F2
:104700001007394305E04FF65F77394044F0100752
:10471000394302830184F0BD028B4FF6F3731A40D4
:104720000283028B0A4302837047F0B50C4615469C
:1047300000220021068C4FF6FE773E400684028B55
:10474000018C4FF60C7632407E1C06EA03162E438F
:104750003243704EB0420ED06F4EB0420BD0B0F12B
:10476000804F08D06D4EB04205D06D4EB04202D0A1
:104770006C4EB04206D14FF6FD76314044F0010652
:10478000314305E04FF6F576314044F00106314300
:1047900002830184F0BD70B505460C465D48854234
:1047A0000ED05D4885420BD0B5F1804F08D05B48F4
:1047B000854205D05A48854202D05A48854200D1E8
:1047C00000E000BF208850B92389A288618828466C
:1047D000FFF7ABFFE1882846FFF79EFF25E0208822
:1047E00004280AD12389A28861882846FFF753FF4D
:1047F000E1882846FFF742FF17E0208808280AD101
:104800002389A28861882846FFF7FBFEE1882846B5
:10481000FFF7EEFE09E02389A28861882846FFF7AA
:10482000A6FEE1882846FFF795FE70BD2DE9F04110
:1048300005460C4600260127608808B9022600E0DC
:104840000026A088012801D1022700E00127208846
:10485000A0B92389A28861882846FFF766FFE1880E
:104860002846FFF759FF23893A4631462846FFF785
:1048700012FFE1882846FFF701FF13E02389A28891
:1048800061882846FFF707FFE1882846FFF7F6FE14
:1048900023893A4631462846FFF747FFE1882846F4
:1048A000FFF73AFFBDE8F0810A884B881A438B88EE
:1048B0001A43CB881A430B891A434B891A438B89B5
:1048C0001A43A0F8442070474FF6FF718180002101
:1048D0000180C180418001727047002101804180C8
:1048E0008180C180018141818181C1817047002126
:1048F00001804180012181800021C18001817047B8
:104900000021018041808180C180018141818181BC
:1049100070470000002C01400034014000040040BA
:1049200000080040000C004021B1028842F0010262
:10493000028004E002884FF6FE731A40028070473E
:1049400031B1B0F8442042F40042A0F8442005E020
:10495000B0F84420C2F30E02A0F8442070471AB108
:1049600083890B43838102E083898B438381704772
:104970008182704741EA0203A0F8483070471AB1BB
:1049800083890B43838102E083898B438381704752
:1049900001894FF6F8721140018170470A460021E3
:1049A00001894FF68F73194011430181704730B56B
:1049B00004460D4629462046FFF7F0FF208940F0C7
:1049C0000700208130BD2DE9F04104460D46164612
:1049D0001F46602D06D13B46012231462046FFF797
:1049E0005AFE05E03B46012231462046FFF79DFE78
:1049F00029462046FFF7D2FF208940F0070020819A
:104A0000BDE8F08130B50C4600210189C9B24FF6EE
:104A1000FF7505EA0325154325432943018130BD70
:104A20002DE9F04105460E461746984600244346B8
:104A30003A4631462846FFF7E5FF2C894FF6F870D5
:104A4000044044F007044FF68F70044044F07004B3
:104A50002C81BDE8F081F0B504460D4616461F4690
:104A60003B46324629462046FFF7CCFF208940F4DA
:104A700080402081F0BD0185828270470A46002176
:104A800001884FF68F731940114301807047F0B5CC
:104A90000C4615461E460021002200230189028B88
:104AA000038C4FF6F877394021434FF6FC473A40E4
:104AB00040F201173A434FF6DD773B404FF6FF7760
:104AC00007EA06172F433B43018102830384F0BDAD
:104AD0000A460021018B4FF68F7319401143018361
:104AE00070470A460021018B48F6FF7319404FF6C4
:104AF000FF7303EA02231943018370470A4600212A
:104B0000818B4FF68F7319401143818370470A469A
:104B10000021818B48F6FF7319404FF6FF7303EABB
:104B2000022319438183704721B1028842F0800239
:104B3000028004E002884FF67F731A4002807047BB
:104B400021B1828842F00402828004E082884FF61C
:104B5000FB731A408280704721B1828842F00802BC
:104B6000828004E082884FF6F7731A408280704793
:104B700021B1828842F00102828004E082884FF6EF
:104B8000FE731A40828070470A460021018B4FF65F
:104B9000F77319401143018370470A460021018BC6
:104BA0004FF2FF7319404FF6FF7303EA02231943D4
:104BB000018370470A460021818B4FF6F773194035
:104BC0001143818370470A460021818B4FF2FF73A6
:104BD00019404FF6FF7303EA02231943818370479C
:104BE0000A460021018B4FF6FB73194011430183E4
:104BF00070470A460021018B4FF6FF3319404FF6EC
:104C0000FF7303EA02231943018370470A46002118
:104C1000818B4FF6FB7319401143818370470A461D
:104C20000021818B4FF6FF3319404FF6FF7303EAE3
:104C300002231943818370470A460021018B4FF6F6
:104C40007F7319401143018370470A460021018B8D
:104C5000C1F30E014FF6FF7303EA022319430183E8
:104C600070470A460021818B4FF67F73194011432C
:104C7000818370470A460021818BC1F30E014FF6F4
:104C8000FF7303EA02231943818370470A46002118
:104C9000018C4FF6FD7319401143018470470A4699
:104CA0000021018C4FF6F7731940114301847047BE
:104CB0000A460021018C4FF6DF7319404FF6FF734F
:104CC00003EA02131943018470470A460021018C4C
:104CD0004FF67F7319404FF6FF7303EA021319432F
:104CE000018470470A460021018C4FF6FF5319409A
:104CF0004FF6FF7303EA02231943018470470A4603
:104D00000021018C4FF2FF7319404FF6FF7303EA45
:104D100002231943018470470A460021018C4DF695
:104D2000FF7319404FF6FF7303EA023319430184FE
:104D3000704730B5002301248C40A3B2048C9C43FF
:104D40000484048C02FA01F5ADB22C43048430BD16
:104D500030B5002304248C40A3B2048C9C4304840B
:104D6000048C02FA01F5ADB22C43048430BD70B559
:104D70000346002000241846183001258D40ACB2AF
:104D80001D8CA5431D8409B1082909D100EB6100E0
:104D9000056825F0700505600568154305600EE09F
:104DA0000D1FC5F34E052844056825F4E045056050
:104DB00005684FF6FF7606EA02263543056070BDAA
:104DC00021B1028842F00202028004E002884FF61C
:104DD000FD731A400280704721B1028842F004023C
:104DE000028004E002884FF6FB731A40028070478D
:104DF00021B1828842F08002828004E082884FF6EE
:104E00007F731A408280704702884FF6F7731A400A
:104E1000028002880A430280704782884FF68F73AF
:104E20001A40828082880A438280704702894FF646
:104E3000F8731A40028102890A430281704702898D
:104E40004FF67F731A40028102890A43028170473C
:104E500081847047818570478186704701877047DC
:104E600081877047A0F84010704702884FF6FF43D3
:104E70001A40028002880A43028070470146888EE9
:104E800070470146088F70470146888F704701467A
:104E9000B1F8400070470146888C70470146088D84
:104EA000704702460020138A0B400BB1012000E03E
:104EB00000207047CA430282704730B50246002086
:104EC00000230024158A05EA0103958905EA0104F7
:104ED00013B10CB1012000E0002030BDCA430282B2
:104EE0007047000010B50446FB48844209D10121F7
:104EF0008803FFF79FF800214FF48040FFF79AF8EE
:104F000032E0F648844209D101214804FFF79FF8B6
:104F100000214FF40030FFF79AF825E0F048844272
:104F200009D101218804FFF792F800214FF4802075
:104F3000FFF78DF818E0EB48844209D10121C8043D
:104F4000FFF785F800214FF40020FFF780F80BE011
:104F5000E548844208D101210805FFF778F80021CF
:104F60004FF48010FFF773F810BD2DE9F04786B0BD
:104F700005460E460024A24600BFA1460027B08980
:104F800000B100BF2F462C8A4CF6FF700440F08819
:104F900004432C82AC894EF6F3100440B08831896A
:104FA0000843718908430443AC81AC8A4FF6FF4043
:104FB0000440B0890443AC8201A8FEF7B4FFC648A0
:104FC000874202D1DDF810A001E0DDF80CA0A8892D
:104FD00000F4004040B10AEBCA0000EB0A1031684F
:104FE0004900B0FBF1F807E00AEBCA0000EB0A1039
:104FF00031688900B0FBF1F86420B8FBF0F00401DF
:105000002009642101FB1089A88900F4004040B107
:10501000322000EBC900B0FBF1F000F007000443C0
:1050200008E0322000EB09106421B0FBF1F000F041
:105030000F0004432C8106B0BDE8F0874FF41651F1
:10504000016000218180C18001810C21418100210A
:105050008181704710B502460020108A4FF2FF038D
:1050600018400B884C8823438C882343CC882343E7
:105070001843108210BD0021018041808180C180D1
:10508000704721B1828942F40052828104E0828912
:105090004DF6FF731A4082817047F0B50346002435
:1050A00000260025002040F66A17B94200D100BF53
:1050B0001846C1F3421401F01F06012707FA06F54E
:1050C000012C01D10C3004E0022C01D1103000E0A1
:1050D00014301AB107682F43076002E00768AF4336
:1050E0000760F0BD1AB1838A0B43838202E0838A92
:1050F0008B4383827047028A4FF6F0731A40028214
:10510000028A0A430282704782894FF2FF731A4073
:10511000828182890A438281704721B1828942F06B
:105120000202828104E082894FF6FD731A40828177
:105130007047028A4FF6DF731A400282028A0A43DE
:105140000282704721B1028A42F48042028204E066
:10515000028A4BF6FF731A4002827047C1F30802BD
:105160008280704701468888C0F3080070478189B3
:1051700041F0010181817047028BD2B20283028B20
:1051800042EA012202837047028B02F47F420283CB
:10519000028B0A430283704721B1828A42F02002C7
:1051A000828204E0828A4FF6DF731A40828270475F
:1051B00021B1828A42F01002828204E0828A4FF694
:1051C000EF731A408282704721B1828A42F008024E
:1051D000828204E0828A4FF6F7731A408282704717
:1051E00021B1828942F40042828103E08289C2F3C4
:1051F0000E028281704721B1828A42F4006282826B
:1052000004E0828A4FF2FF731A4082827047828ADA
:105210004FF6FB731A408282828A0A438282704769
:1052200021B1828A42F00202828204E0828A4FF631
:10523000FD731A408282704702460020B1F5007F5C
:1052400000D100BF13880B400BB1012000E000200B
:10525000704701F40072B2F5007F00D100BFCA436D
:105260000280704770B5024600240023002500200C
:1052700040F66A16B14200D100BFC1F3421501F0F9
:105280001F03012606FA03F3012D02D1968933404C
:1052900006E0022D02D1168A334001E0968A33409F
:1052A0000C12012606FA04F41688344013B10CB12E
:1052B000012000E0002070BD10B50022002340F660
:1052C0006A14A14200D100BF0A1201249440A3B283
:1052D000DC43048010BD0000003801400044004061
:1052E00000480040004C00400050004070477047AC
:1052F0007047754600F02CF8AE46050069465346E7
:1053000020F00700854618B020B5FEF74FFABDE83B
:1053100020404FF000064FF000074FF000084FF01C
:10532000000B21F00701AC46ACE8C009ACE8C009AD
:10533000ACE8C009ACE8C0098D46704710B504461A
:10534000AFF300802046BDE81040FAF738BF0000F8
:10535000004870471850002001491820ABBEFEE7F6
:10536000260002007047000010B591EA030F48BF05
:1053700083F0004300F15683841A71EB030C05D2CD
:10538000121943EB0C03001B61EB0C01DFF824E165
:105390004FEA1154A4EB135C1EEA430F18BF9EEAB8
:1053A000445F73D023EA0E03DCF1200E21EA04519E
:1053B00043F4801332D322FA0CFE10EB0E0023FAD2
:1053C0000CFE41EB0E01CCF1200E03FA0EFE10EBA9
:1053D0000E0051F10001B1F5801FCCF1200E32D248
:1053E00001EB045112FA0EF2BDE8104058BF7047AD
:1053F000401C38BF5FEA420218BF7047002814BF44
:1054000020F0010041F100014FEA410313F5001FB4
:1054100038BF7047A1F1C04100F0F6BA012A43EB52
:105420000302ACF1200CDCF11F0E32BF4FF0000E76
:1054300023FA0CF310EB030041EB0451B4EB115FC2
:10544000D0D0A1EB045101F5801149085FEA30008A
:1054500001EB04510ED350F1000038BF12FA0EFEDA
:1054600008D1BDE81040C9E7401C38BF5FEA4202DE
:10547000CAD1C3E7BDE810404FEA410313F5001F4E
:1054800038BF7047A1F1C04100F0BEBA9EEA445F48
:1054900008D011EA5E0FBDE8104004BF01F00041E2
:1054A00000207047BDE8104070B500F05FFA00BF03
:1054B00064FBBE3E0000E0FF2DE9C04130B4DFF8E0
:1054C000A0C23CEA111418BF3CEA131400F0EC80AF
:1054D00081EA03051CEA111444EAD57418BF1CEADA
:1054E000131500F0C780A4EB05044FF0004545EA12
:1054F000C12145EAC32341EA505143EA525304F122
:105500007F74994204F500344FEAC0204FEAC2226A
:1055100008BF904200F09C804FEA13650FF24016DE
:10552000765D4FEA134506FB05F7C7F1807706FB6A
:1055300007F74FEAD737A7FB03687642C8F58038EC
:10554000A7FB06CE38BFA8F1010807FB08E64FF01D
:10555000000EA6FB028CE6FB03CEDCF1000CCEF1C4
:10556000004E38BFAEF1010EA6FB0C584FF00007FD
:105570004FF00005E6FB0E87A1FB08C6A0FB07CE97
:1055800016EB0E0645F10005E1FB076515F1E04E4F
:105590007EBFA4F580345FEA46066D4116F18007B0
:1055A00045F100054FEA17274FEA066647EA056707
:1055B000A6F1DE46B6F1805F4FEA15251FD93846C1
:1055C00024F0010C05EBC471BCF1FE6F01EB0C1172
:1055D00002D8F0BCBDE8008124425CBF01F5801E0A
:1055E0009EEAC47F02D4F0BCBDE80081244238D4D6
:1055F000F0BCA1F1C041BDE8004100F005BA4FEA9E
:10560000D22242EA43524FEAD323A7FB02864FEA53
:10561000D02040EA415007FB03661EEA0E0F4FEA16
:10562000D12105FB026658BFA6EB0056B6EB00562B
:105630004FEA520E4EEAC37E18EB0E0E56EB530E97
:10564000BDD518EB02085E417F1C55F10005B6E799
:105650004FF480154FF000074FF000064FF00008A0
:10566000ADE7F0BC4FF0000001F1C04101F0004196
:10567000BDE8008111EA0C1F0CEA131500D00CE004
:1056800013EA0C1F00F025804FF00000F0BC81EA07
:10569000030101F00041BDE80081F0BCBDE800411C
:1056A00081EA030100F0B0B9F0BCBDE8004170B57B
:1056B00000F05CF9097EFC3E00F007B881EA0301C6
:1056C0004FF0000001F00041704781EA030100F053
:1056D0009BB9F0BCBDE800414FF000002149704784
:1056E000FFFDFBF9F7F5F4F2F0EEEDEBE9E8E6E4A7
:1056F000E3E1E0DEDDDBDAD8D7D5D4D3D1D0CFCD2E
:10570000CCCBCAC8C7C6C5C4C2C1C0BFBEBDBCBB66
:10571000BAB9B8B7B6B5B4B3B2B1B0AFAEADACAB61
:10572000AAA9A8A8A7A6A5A4A3A3A2A1A09F9F9E3B
:105730009D9C9C9B9A9999989797969595949393ED
:10574000929191908F8F8E8E8D8C8C8B8B8A898984
:105750008888878786858584848383828281818007
:105760000000FF070000F87F4FEA1153A3F58063A4
:10577000D3F11E03A8BFD3F1200C08DB4FF0004289
:1057800042EAC12252EA505232FA03F0704709420B
:105790000BD4102BC4BF0020704703F5787CBCF1FC
:1057A000FF3F05D04FF0FF3070474FF000007047CB
:1057B00070B500F0DBF800BF4992248000207047EC
:1057C000F0E710F0004248BF4042B0FA80F310FA10
:1057D00003F10AD0C3F11D0303F580634FEA415082
:1057E00002EB035202EBD12170474FF000007047EB
:1057F000B0FA80F310FA03F10AD0C3F11D0303F5E8
:1058000080634FEA41504FEA035202EBD1217047C7
:105810004FF0000070470000DFF848C170B51CEA87
:10582000111E1EBF1CEA13159EEA0C0F95EA0C0F01
:1058300000F06F8081EA030423EA4C134EEAD47E21
:1058400021EA4C1141F4801143F48013AE44A1FBD2
:10585000024CA0FB0365AEF17F7E361955EB0C05BB
:10586000A1FB034C4CF10003A0FB021C16EB0C0641
:10587000654153F10003094218BF46F0010613F4D5
:10588000007F0BD14FEA03314FEA0530340341EA80
:10589000155140EA16506FF003020AE04FEAC321A7
:1058A0004FEAC520F40241EA555140EA56506FF0E4
:1058B000020202EB2E4201EB025585EACE710AD0BC
:1058C0005FEA440C18BF24F0004450F1000041F19D
:1058D000000120EAD47040F2FE7C624500D270BD27
:1058E000A84214BF4FF080444FF04044002E08BF40
:1058F0000024BEF1806FA8BFA1F1C041BDE8704097
:1059000080F282804FF0000001F1C04101F00041BF
:1059100070479EEA0C0F0CEA131518BF95EA0C0F9E
:1059200006D04FF0000081EA030E0EF0004170BD7A
:1059300000F01CF88900013E00F007B800F009B83B
:105940004FEA430C5FEA5C5C08D081EA030100F097
:105950005BB84FEA410C5FEA5C5CF6D14FF00000A7
:10596000014970470000FF070000F87F0EF1020EAA
:105970002EF0030E5EF8046B364205D4012A43EB89
:10598000030515F5001F12D8012841EB010C1CF589
:10599000001F0CD80ED14FEAD17C15F5001F0CEB7F
:1059A0004C0C0CF1020C08BF4CEBD37C04E04FF024
:1059B000080C01E04FEAD37C0CEB4C0526FA05F607
:1059C00006F00706B6F1040C06D20EEB860CBDE815
:1059D00070404CF0010C6047DFE80CF0090B02024C
:1059E0004FF000414FF00000A1F5002170BD1946B5
:1059F0001046012851EB010418BFD4F5001484BFF0
:105A0000002001F0004170BD0808A0F500114FEA28
:105A10003101704710B591EA030F48BF83F000438E
:105A20003FF5AAAC841A71EB030C07D212198CF063
:105A3000004C43EB0C03001B61EB0C01DFF8A4E10D
:105A40004FEA1154A4EB135C1EEA430F18BF9EEA01
:105A5000445F00F0B08023EA6E03524221EA045111
:105A6000C3EB6E0338BF5B1EDCF1200E25D322FA98
:105A70000CFE10EB0E0043FA0CFE41EB0E01CCF1D4
:105A8000200E03FA0EFE10EB0E0051F10001CCF1D6
:105A9000200E29D412FA0EF201EB0451BDE8104099
:105AA00058BF7047401C1CBFB2F1004F7047002820
:105AB0000CBF491C20F00100704712EB020E43EBB3
:105AC000030218BF4FF0010E4EEA4202ACF1200C67
:105AD000DCF11E0E54D943FA0CFE10EB0E0051F10E
